:1001670000FC006000DA00F2006600B600BE00E0A6
:0E01770000FE00E6008E000000000000000008
:10018500E4FFFE0FBF00010EE4B507F7EEB47DF303
:010195002247
:1001240078087C007D007BFF7A0179677E007F1E62
:100134001200D3E4F526F527E52775F002A4240878
:10014400F9E4FAFB1200F9F5801201851201850524
:1001540027E52770020526C3940FE5266480948062
:0201640040D683
:010166002276
:0300000002019664
:0C019600787FE4F6D8FD75812702012473
:10000300E709F608DFFA8046E709F208DFFA803EDF
:1000130088828C83E709F0A3DFFA8032E309F608CC
:10002300DFFA8078E309F208DFFA807088828C8334
:10003300E309F0A3DFFA806489828A83E0A3F608E8
:10004300DFFA805889828A83E0A3F208DFFA804CC2
:1000530080D280FA80C680D4806980F28033801099
:1000630080A680EA809A80A880DA80E280CA803302
:1000730089828A83ECFAE493A3C8C582C8CCC5837A
:10008300CCF0A3C8C582C8CCC583CCDFE9DEE7804A
:100093000D89828A83E493A3F608DFF9ECFAA9F0C9
:1000A300EDFB2289828A83ECFAE0A3C8C582C8CC1F
:1000B300C583CCF0A3C8C582C8CCC583CCDFEADE38
:1000C300E880DB89828A83E493A3F208DFF980CC9A
:1000D30088F0EF60010E4E60C388F0ED2402B40493
:1000E3000050B9F582EB2402B4040050AF2323453A
:0600F3008223900053730C
:1000F900BB010A89828A83E0F5F0A3E022500687D2
:10010900F009E71922BBFE07E3F5F009E319228993
:0B011900828A83E493F5F074019322C6
:00000001FF
