:1001560000FC006000DA00F2006600B600BE00E0B7
:0E01660000FE00E6008E000000000000000019
:10017400E4FFFE0FBF00010EE4B507F7EEB47DF314
:010184002258
:1000F90078087C007D007BFF7A0179567E007F1E9F
:100109001200D37D097C00ED25E02408F8E6FE08FD
:10011900E6FFED25E0240AF8A60608A607ED1D70FE
:10012900011CED64024C70DF750E00750F8EE4FC46
:10013900FDED25E02408F808E6F5801201741201A6
:0C014900740DBD00010CED640F4C70E55E
:010155002287
:0300000002018575
:0C018500787FE4F6D8FD7581250200F9B2
:10000300E709F608DFFA8046E709F208DFFA803EDF
:1000130088828C83E709F0A3DFFA8032E309F608CC
:10002300DFFA8078E309F208DFFA807088828C8334
:10003300E309F0A3DFFA806489828A83E0A3F608E8
:10004300DFFA805889828A83E0A3F208DFFA804CC2
:1000530080D280FA80C680D4806980F28033801099
:1000630080A680EA809A80A880DA80E280CA803302
:1000730089828A83ECFAE493A3C8C582C8CCC5837A
:10008300CCF0A3C8C582C8CCC583CCDFE9DEE7804A
:100093000D89828A83E493A3F608DFF9ECFAA9F0C9
:1000A300EDFB2289828A83ECFAE0A3C8C582C8CC1F
:1000B300C583CCF0A3C8C582C8CCC583CCDFEADE38
:1000C300E880DB89828A83E493A3F208DFF980CC9A
:1000D30088F0EF60010E4E60C388F0ED2402B40493
:1000E3000050B9F582EB2402B4040050AF2323453A
:0600F3008223900053730C
:00000001FF
